{
  "contractName": "SimpleContract",
  "abi": [
    {
      "inputs": [],
      "stateMutability": "nonpayable",
      "type": "constructor"
    },
    {
      "inputs": [],
      "name": "deposit",
      "outputs": [
        {
          "internalType": "uint256",
          "name": "",
          "type": "uint256"
        }
      ],
      "stateMutability": "view",
      "type": "function",
      "constant": true
    },
    {
      "inputs": [],
      "name": "message",
      "outputs": [
        {
          "internalType": "string",
          "name": "",
          "type": "string"
        }
      ],
      "stateMutability": "view",
      "type": "function",
      "constant": true
    },
    {
      "inputs": [
        {
          "internalType": "string",
          "name": "_message",
          "type": "string"
        }
      ],
      "name": "sendMessage",
      "outputs": [],
      "stateMutability": "nonpayable",
      "type": "function"
    },
    {
      "inputs": [
        {
          "internalType": "uint256",
          "name": "_deposite",
          "type": "uint256"
        }
      ],
      "name": "setDepositAmount",
      "outputs": [],
      "stateMutability": "nonpayable",
      "type": "function"
    },
    {
      "inputs": [],
      "name": "getDepositeAmount",
      "outputs": [
        {
          "internalType": "uint256",
          "name": "",
          "type": "uint256"
        }
      ],
      "stateMutability": "view",
      "type": "function",
      "constant": true
    },
    {
      "inputs": [],
      "name": "getMessage",
      "outputs": [
        {
          "internalType": "string",
          "name": "",
          "type": "string"
        }
      ],
      "stateMutability": "view",
      "type": "function",
      "constant": true
    }
  ],
  "bytecode": "0x60806040526040518060400160405280601881526020017f68656c6c6f204920616d2066726f6d20636f6e747261637400000000000000008152506000908051906020019061004f929190610062565b5034801561005c57600080fd5b50610166565b82805461006e90610105565b90600052602060002090601f01602090048101928261009057600085556100d7565b82601f106100a957805160ff19168380011785556100d7565b828001600101855582156100d7579182015b828111156100d65782518255916020019190600101906100bb565b5b5090506100e491906100e8565b5090565b5b808211156101015760008160009055506001016100e9565b5090565b6000600282049050600182168061011d57607f821691505b6020821081141561013157610130610137565b5b50919050565b7f4e487b7100000000000000000000000000000000000000000000000000000000600052602260045260246000fd5b610631806101756000396000f3fe608060405234801561001057600080fd5b50600436106100625760003560e01c8063469c8110146100675780634fa4514a146100835780636d8cee56146100a1578063ce6d41de146100bd578063d0e30db0146100db578063e21f37ce146100f9575b600080fd5b610081600480360381019061007c919061038b565b610117565b005b61008b610131565b604051610098919061045f565b60405180910390f35b6100bb60048036038101906100b691906103cc565b61013b565b005b6100c5610145565b6040516100d2919061043d565b60405180910390f35b6100e36101d7565b6040516100f0919061045f565b60405180910390f35b6101016101dd565b60405161010e919061043d565b60405180910390f35b806000908051906020019061012d92919061026b565b5050565b6000600154905090565b8060018190555050565b60606000805461015490610543565b80601f016020809104026020016040519081016040528092919081815260200182805461018090610543565b80156101cd5780601f106101a2576101008083540402835291602001916101cd565b820191906000526020600020905b8154815290600101906020018083116101b057829003601f168201915b5050505050905090565b60015481565b600080546101ea90610543565b80601f016020809104026020016040519081016040528092919081815260200182805461021690610543565b80156102635780601f1061023857610100808354040283529160200191610263565b820191906000526020600020905b81548152906001019060200180831161024657829003601f168201915b505050505081565b82805461027790610543565b90600052602060002090601f01602090048101928261029957600085556102e0565b82601f106102b257805160ff19168380011785556102e0565b828001600101855582156102e0579182015b828111156102df5782518255916020019190600101906102c4565b5b5090506102ed91906102f1565b5090565b5b8082111561030a5760008160009055506001016102f2565b5090565b600061032161031c846104ab565b61047a565b90508281526020810184848401111561033957600080fd5b610344848285610501565b509392505050565b600082601f83011261035d57600080fd5b813561036d84826020860161030e565b91505092915050565b600081359050610385816105e4565b92915050565b60006020828403121561039d57600080fd5b600082013567ffffffffffffffff8111156103b757600080fd5b6103c38482850161034c565b91505092915050565b6000602082840312156103de57600080fd5b60006103ec84828501610376565b91505092915050565b6000610400826104db565b61040a81856104e6565b935061041a818560208601610510565b610423816105d3565b840191505092915050565b610437816104f7565b82525050565b6000602082019050818103600083015261045781846103f5565b905092915050565b6000602082019050610474600083018461042e565b92915050565b6000604051905081810181811067ffffffffffffffff821117156104a1576104a06105a4565b5b8060405250919050565b600067ffffffffffffffff8211156104c6576104c56105a4565b5b601f19601f8301169050602081019050919050565b600081519050919050565b600082825260208201905092915050565b6000819050919050565b82818337600083830152505050565b60005b8381101561052e578082015181840152602081019050610513565b8381111561053d576000848401525b50505050565b6000600282049050600182168061055b57607f821691505b6020821081141561056f5761056e610575565b5b50919050565b7f4e487b7100000000000000000000000000000000000000000000000000000000600052602260045260246000fd5b7f4e487b7100000000000000000000000000000000000000000000000000000000600052604160045260246000fd5b6000601f19601f8301169050919050565b6105ed816104f7565b81146105f857600080fd5b5056fea264697066735822122085db5fa7af3c4d474f82116c1bbed5ce552735b1cd1349f3d49c93e888f7f62b64736f6c63430008000033",
  "immutableReferences": {},
  "source": "pragma solidity ^0.8.0;\n\n\ncontract SimpleContract {\n\n    constructor() {\n\n    }\n\n    string public message = 'hello I am from contract';\n    uint public deposit;\n\n    function sendMessage(string memory _message) public {\n        message = _message;\n    }\n\n    function setDepositAmount(uint _deposite) public {\n        deposit = _deposite;\n    }\n\n    function getDepositeAmount() public view returns(uint) {\n        return deposit;\n    }\n\n    function getMessage() public view returns(string memory) {\n        return message;\n    }\n}",
  "sourcePath": "/Users/pro/Development/blockchain/course_frontend/test-drizzle/contracts/SimpleContract.sol",
  "compiler": {
    "name": "solc",
    "version": "0.8.0+commit.c7dfd78e.Emscripten.clang"
  },
  "schemaVersion": "3.3.3",
  "updatedAt": "2021-05-22T09:25:22.546Z",
  "networkType": "ethereum",
  "devdoc": {
    "kind": "dev",
    "methods": {},
    "version": 1
  },
  "userdoc": {
    "kind": "user",
    "methods": {},
    "version": 1
  }
}