{
  "contractName": "SimpleAuction",
  "abi": [
    {
      "inputs": [
        {
          "internalType": "uint256",
          "name": "_biddingTime",
          "type": "uint256"
        },
        {
          "internalType": "address payable",
          "name": "_beneficiary",
          "type": "address"
        }
      ],
      "stateMutability": "nonpayable",
      "type": "constructor"
    },
    {
      "inputs": [],
      "name": "auctionEndTime",
      "outputs": [
        {
          "internalType": "uint256",
          "name": "",
          "type": "uint256"
        }
      ],
      "stateMutability": "view",
      "type": "function",
      "constant": true
    },
    {
      "inputs": [],
      "name": "beneficiary",
      "outputs": [
        {
          "internalType": "address payable",
          "name": "",
          "type": "address"
        }
      ],
      "stateMutability": "view",
      "type": "function",
      "constant": true
    },
    {
      "inputs": [],
      "name": "highestBid",
      "outputs": [
        {
          "internalType": "uint256",
          "name": "",
          "type": "uint256"
        }
      ],
      "stateMutability": "view",
      "type": "function",
      "constant": true
    },
    {
      "inputs": [],
      "name": "highestBidder",
      "outputs": [
        {
          "internalType": "address payable",
          "name": "",
          "type": "address"
        }
      ],
      "stateMutability": "view",
      "type": "function",
      "constant": true
    },
    {
      "inputs": [],
      "name": "bid",
      "outputs": [],
      "stateMutability": "payable",
      "type": "function",
      "payable": true
    },
    {
      "inputs": [],
      "name": "withdraw",
      "outputs": [
        {
          "internalType": "bool",
          "name": "",
          "type": "bool"
        }
      ],
      "stateMutability": "payable",
      "type": "function",
      "payable": true
    },
    {
      "inputs": [],
      "name": "endAuction",
      "outputs": [],
      "stateMutability": "nonpayable",
      "type": "function"
    }
  ],
  "bytecode": "0x608060405234801561001057600080fd5b506040516107ec3803806107ec833981810160405281019061003291906100b5565b806000806101000a81548173ffffffffffffffffffffffffffffffffffffffff021916908373ffffffffffffffffffffffffffffffffffffffff160217905550814261007e91906100f1565b60018190555050506101e0565b60008151905061009a816101b2565b92915050565b6000815190506100af816101c9565b92915050565b600080604083850312156100c857600080fd5b60006100d6858286016100a0565b92505060206100e78582860161008b565b9150509250929050565b60006100fc82610179565b915061010783610179565b9250827fffffffffffffffffffffffffffffffffffffffffffffffffffffffffffffffff0382111561013c5761013b610183565b5b828201905092915050565b600061015282610159565b9050919050565b600073ffffffffffffffffffffffffffffffffffffffff82169050919050565b6000819050919050565b7f4e487b7100000000000000000000000000000000000000000000000000000000600052601160045260246000fd5b6101bb81610147565b81146101c657600080fd5b50565b6101d281610179565b81146101dd57600080fd5b50565b6105fd806101ef6000396000f3fe6080604052600436106100705760003560e01c80634b449cba1161004e5780634b449cba146100c857806391f90157146100f3578063d57bde791461011e578063fe67a54b1461014957610070565b80631998aeef1461007557806338af3eed1461007f5780633ccfd60b146100aa575b600080fd5b61007d610160565b005b34801561008b57600080fd5b5061009461024c565b6040516100a191906104a9565b60405180910390f35b6100b2610270565b6040516100bf91906104c4565b60405180910390f35b3480156100d457600080fd5b506100dd61039b565b6040516100ea91906104df565b60405180910390f35b3480156100ff57600080fd5b506101086103a1565b60405161011591906104a9565b60405180910390f35b34801561012a57600080fd5b506101336103c7565b60405161014091906104df565b60405180910390f35b34801561015557600080fd5b5061015e6103cd565b005b60015442111561016f57600080fd5b600354341161017d57600080fd5b6000600354146102025760035460046000600260009054906101000a900473ffffffffffffffffffffffffffffffffffffffff1673ffffffffffffffffffffffffffffffffffffffff1673ffffffffffffffffffffffffffffffffffffffff16815260200190815260200160002060008282546101fa91906104fa565b925050819055505b33600260006101000a81548173ffffffffffffffffffffffffffffffffffffffff021916908373ffffffffffffffffffffffffffffffffffffffff16021790555034600381905550565b60008054906101000a900473ffffffffffffffffffffffffffffffffffffffff1681565b600080600460003373ffffffffffffffffffffffffffffffffffffffff1673ffffffffffffffffffffffffffffffffffffffff16815260200190815260200160002054905060003390506000821115610391576000600460003373ffffffffffffffffffffffffffffffffffffffff1673ffffffffffffffffffffffffffffffffffffffff168152602001908152602001600020819055508073ffffffffffffffffffffffffffffffffffffffff166108fc839081150290604051600060405180830381858888f193505050506103905781600460003373ffffffffffffffffffffffffffffffffffffffff1673ffffffffffffffffffffffffffffffffffffffff16815260200190815260200160002081905550600092505050610398565b5b6001925050505b90565b60015481565b600260009054906101000a900473ffffffffffffffffffffffffffffffffffffffff1681565b60035481565b6001544210156103dc57600080fd5b600560009054906101000a900460ff16156103f657600080fd5b6001600560006101000a81548160ff02191690831515021790555060008054906101000a900473ffffffffffffffffffffffffffffffffffffffff1673ffffffffffffffffffffffffffffffffffffffff166108fc6003549081150290604051600060405180830381858888f19350505050158015610479573d6000803e3d6000fd5b50565b61048581610550565b82525050565b61049481610562565b82525050565b6104a38161058e565b82525050565b60006020820190506104be600083018461047c565b92915050565b60006020820190506104d9600083018461048b565b92915050565b60006020820190506104f4600083018461049a565b92915050565b60006105058261058e565b91506105108361058e565b9250827fffffffffffffffffffffffffffffffffffffffffffffffffffffffffffffffff0382111561054557610544610598565b5b828201905092915050565b600061055b8261056e565b9050919050565b60008115159050919050565b600073ffffffffffffffffffffffffffffffffffffffff82169050919050565b6000819050919050565b7f4e487b7100000000000000000000000000000000000000000000000000000000600052601160045260246000fdfea2646970667358221220e9e8be658cd1fcd7e4c17e96a6219e6e68d03db2992dd2511a8d52700e2eb7b464736f6c63430008000033",
  "immutableReferences": {},
  "source": "pragma solidity >=0.5.0 <0.9.0;\n\ncontract SimpleAuction {\n    // Parameters of the auction. Times are either\n    // absolute unix timestamps (seconds since 1970-01-01)\n    // or time periods in seconds.\n    address payable public beneficiary;\n    uint public auctionEndTime;\n\n    // Current state of the auction.\n    address payable public highestBidder;\n    uint public highestBid;\n\n    // Allowed withdrawals of previous bids\n    mapping(address => uint) pendingReturns;\n\n    // Set to true at the end, disallows any change\n    bool ended;\n\n    // Modifiers can be used to easily change the behaviour of functions. \n    // For example, they can automatically check a condition prior to executing the function.\n    // It is good to put conditions that are reused into modifiers so you don't have to repeat code \n    modifier auctionIsOpen(){\n        // Revert the call if the bidding\n        // period is over.\n        require(block.timestamp <= auctionEndTime);\n        _;\n    }\n\n    // The following is a so-called natspec comment,\n    // recognizable by the three slashes.\n    // It will be shown when the user is asked to\n    // confirm a transaction.\n\n    /// Create a simple auction with `_biddingTime`\n    /// seconds bidding time on behalf of the\n    /// beneficiary address `_beneficiary`.\n    constructor (uint _biddingTime, address payable _beneficiary) {\n        beneficiary = _beneficiary;\n        auctionEndTime = block.timestamp + _biddingTime;\n    }\n\n    /// Bid on the auction with the value sent\n    /// together with this transaction.\n    /// The value will only be refunded if the\n    /// auction is not won.\n    /// This function also uses the auctionIsOpen modifier\n    function bid() public payable auctionIsOpen {\n        // No arguments are necessary, all\n        // information is already part of\n        // the transaction. The keyword payable\n        // is required for the function to\n        // be able to receive Ether.\n\n        // If the bid is not higher, send the\n        // money back.\n        require(msg.value > highestBid);\n\n        if (highestBid != 0) {\n            // Sending back the money by simply using\n            // highestBidder.send(highestBid) is a security risk\n            // because it could execute an untrusted contract.\n            // It is always safer to let the recipients\n            // withdraw their money themselves.\n            pendingReturns[highestBidder] += highestBid;\n        }\n        highestBidder = payable(msg.sender);\n        highestBid = msg.value;\n    }\n\n    /// Withdraw a bid that was overbid.\n    function withdraw() public payable returns (bool) {\n        uint amount = pendingReturns[msg.sender];\n        address payable _sender = payable(msg.sender);\n        if (amount > 0) {\n            // It is important to set this to zero because the recipient\n            // can call this function again as part of the receiving call\n            // before `send` returns.\n            pendingReturns[msg.sender] = 0;\n\n            if (!_sender.send(amount)) {\n                // No need to call throw here, just reset the amount owing\n                pendingReturns[msg.sender] = amount;\n                return false;\n            }\n        }\n        return true;\n    }\n\n    /// End the auction and send the highest bid\n    /// to the beneficiary.\n    function endAuction() public {\n        // It is a good guideline to structure functions that interact\n        // with other contracts (i.e. they call functions or send Ether)\n        // into three phases:\n        // 1. checking conditions\n        // 2. performing actions (potentially changing conditions)\n        // 3. interacting with other contracts\n        // If these phases are mixed up, the other contract could call\n        // back into the current contract and modify the state or cause\n        // effects (ether payout) to be performed multiple times.\n        // If functions called internally include interaction with external\n        // contracts, they also have to be considered interaction with\n        // external contracts.\n\n        // 1. Conditions\n        require(block.timestamp >= auctionEndTime); // auction did not yet end\n        require(!ended); // this function has already been called\n\n        // 2. Effects\n        ended = true;\n\n        // 3. Interaction\n        beneficiary.transfer(highestBid);\n    }\n}",
  "sourcePath": "/Users/pro/Development/blockchain/course_solidity/contracts/SimpleAuction.sol",
  "compiler": {
    "name": "solc",
    "version": "0.8.0+commit.c7dfd78e.Emscripten.clang"
  },
  "schemaVersion": "3.3.3",
  "updatedAt": "2021-05-15T12:47:19.191Z",
  "networkType": "ethereum",
  "devdoc": {
    "kind": "dev",
    "methods": {},
    "version": 1
  },
  "userdoc": {
    "kind": "user",
    "methods": {
      "bid()": {
        "notice": "Bid on the auction with the value sent together with this transaction. The value will only be refunded if the auction is not won. This function also uses the auctionIsOpen modifier"
      },
      "constructor": {
        "notice": "Create a simple auction with `_biddingTime` seconds bidding time on behalf of the beneficiary address `_beneficiary`."
      },
      "endAuction()": {
        "notice": "End the auction and send the highest bid to the beneficiary."
      },
      "withdraw()": {
        "notice": "Withdraw a bid that was overbid."
      }
    },
    "version": 1
  }
}