{
  "contractName": "TransportCity",
  "abi": [
    {
      "inputs": [],
      "stateMutability": "nonpayable",
      "type": "constructor"
    },
    {
      "inputs": [
        {
          "internalType": "address",
          "name": "",
          "type": "address"
        }
      ],
      "name": "UserList",
      "outputs": [
        {
          "internalType": "address",
          "name": "customer",
          "type": "address"
        },
        {
          "internalType": "uint256",
          "name": "total_tokens",
          "type": "uint256"
        },
        {
          "internalType": "bool",
          "name": "active",
          "type": "bool"
        }
      ],
      "stateMutability": "view",
      "type": "function",
      "constant": true
    },
    {
      "inputs": [
        {
          "internalType": "uint256",
          "name": "_tokens",
          "type": "uint256"
        }
      ],
      "name": "getPayment",
      "outputs": [],
      "stateMutability": "nonpayable",
      "type": "function"
    }
  ],
  "bytecode": "0x608060405234801561001057600080fd5b5061034c806100206000396000f3fe608060405234801561001057600080fd5b50600436106100365760003560e01c80633280a8361461003b578063eb63a59e14610057575b600080fd5b6100556004803603810190610050919061018e565b610089565b005b610071600480360381019061006c9190610165565b6100e4565b604051610080939291906101e4565b60405180910390f35b806000803373ffffffffffffffffffffffffffffffffffffffff1673ffffffffffffffffffffffffffffffffffffffff16815260200190815260200160002060010160008282546100da919061021b565b9250508190555050565b60006020528060005260406000206000915090508060000160009054906101000a900473ffffffffffffffffffffffffffffffffffffffff16908060010154908060020160009054906101000a900460ff16905083565b60008135905061014a816102e8565b92915050565b60008135905061015f816102ff565b92915050565b60006020828403121561017757600080fd5b60006101858482850161013b565b91505092915050565b6000602082840312156101a057600080fd5b60006101ae84828501610150565b91505092915050565b6101c081610271565b82525050565b6101cf81610283565b82525050565b6101de816102af565b82525050565b60006060820190506101f960008301866101b7565b61020660208301856101d5565b61021360408301846101c6565b949350505050565b6000610226826102af565b9150610231836102af565b9250827fffffffffffffffffffffffffffffffffffffffffffffffffffffffffffffffff03821115610266576102656102b9565b5b828201905092915050565b600061027c8261028f565b9050919050565b60008115159050919050565b600073ffffffffffffffffffffffffffffffffffffffff82169050919050565b6000819050919050565b7f4e487b7100000000000000000000000000000000000000000000000000000000600052601160045260246000fd5b6102f181610271565b81146102fc57600080fd5b50565b610308816102af565b811461031357600080fd5b5056fea2646970667358221220cc1d260191557d747cf5f0fde8fecd134e4009a51ac79388052e174b8bf1b60464736f6c63430008000033",
  "immutableReferences": {},
  "source": "// SPDX-License-Identifier: GPL-3.0\npragma solidity >=0.5.0 <0.9.0;\n\ncontract TransportCity {\n    constructor() {\n\n    }\n\n\n    struct User {\n        address customer;\n        uint total_tokens;\n        bool active;\n    }\n\n    mapping(address => User) public UserList;\n\n    // [ (address => {customer, total_tokens, active}), \n    //   (address => {customer, total_tokens, active}) ]\n\n    function getPayment(uint _tokens) public {\n       UserList[msg.sender].total_tokens += _tokens;\n    }\n}",
  "sourcePath": "/Users/pro/Development/blockchain/course_solidity/contracts/TransportCity.sol",
  "compiler": {
    "name": "solc",
    "version": "0.8.0+commit.c7dfd78e.Emscripten.clang"
  },
  "schemaVersion": "3.3.3",
  "updatedAt": "2021-05-15T08:02:13.636Z",
  "networkType": "ethereum",
  "devdoc": {
    "kind": "dev",
    "methods": {},
    "version": 1
  },
  "userdoc": {
    "kind": "user",
    "methods": {},
    "version": 1
  }
}