{
  "contractName": "TransportCity",
  "abi": [
    {
      "inputs": [],
      "stateMutability": "nonpayable",
      "type": "constructor"
    },
    {
      "inputs": [
        {
          "internalType": "address",
          "name": "",
          "type": "address"
        }
      ],
      "name": "UserList",
      "outputs": [
        {
          "internalType": "address",
          "name": "customer",
          "type": "address"
        },
        {
          "internalType": "uint256",
          "name": "total_tokens",
          "type": "uint256"
        },
        {
          "internalType": "bool",
          "name": "active",
          "type": "bool"
        }
      ],
      "stateMutability": "view",
      "type": "function",
      "constant": true
    },
    {
      "inputs": [],
      "name": "voting_contract_address",
      "outputs": [
        {
          "internalType": "address",
          "name": "",
          "type": "address"
        }
      ],
      "stateMutability": "view",
      "type": "function",
      "constant": true
    },
    {
      "inputs": [
        {
          "internalType": "address",
          "name": "_address",
          "type": "address"
        }
      ],
      "name": "setVotingContractAddress",
      "outputs": [],
      "stateMutability": "nonpayable",
      "type": "function"
    },
    {
      "inputs": [
        {
          "internalType": "uint256",
          "name": "_tokens",
          "type": "uint256"
        }
      ],
      "name": "getPayment",
      "outputs": [],
      "stateMutability": "nonpayable",
      "type": "function"
    }
  ],
  "bytecode": "0x608060405234801561001057600080fd5b506106b2806100206000396000f3fe608060405234801561001057600080fd5b506004361061004c5760003560e01c80633280a8361461005157806362b08e701461006d578063a85946ed14610089578063eb63a59e146100a7575b600080fd5b61006b6004803603810190610066919061048b565b6100d9565b005b61008760048036038101906100829190610410565b6102fe565b005b610091610341565b60405161009e91906104e1565b60405180910390f35b6100c160048036038101906100bc9190610410565b610365565b6040516100d093929190610533565b60405180910390f35b60008060009054906101000a900473ffffffffffffffffffffffffffffffffffffffff16905060008173ffffffffffffffffffffffffffffffffffffffff16632208285f6040518163ffffffff1660e01b815260040160206040518083038186803b15801561014757600080fd5b505afa15801561015b573d6000803e3d6000fd5b505050506040513d601f19601f8201168201806040525081019061017f9190610439565b90508173ffffffffffffffffffffffffffffffffffffffff16639b8ebc54336040518263ffffffff1660e01b81526004016101ba91906104e1565b60206040518083038186803b1580156101d257600080fd5b505afa1580156101e6573d6000803e3d6000fd5b505050506040513d601f19601f8201168201806040525081019061020a9190610462565b156102f9578073ffffffffffffffffffffffffffffffffffffffff166323b872dd3330866040518463ffffffff1660e01b815260040161024c939291906104fc565b602060405180830381600087803b15801561026657600080fd5b505af115801561027a573d6000803e3d6000fd5b505050506040513d601f19601f8201168201806040525081019061029e9190610462565b5082600160003373ffffffffffffffffffffffffffffffffffffffff1673ffffffffffffffffffffffffffffffffffffffff16815260200190815260200160002060010160008282546102f1919061056a565b925050819055505b505050565b806000806101000a81548173ffffffffffffffffffffffffffffffffffffffff021916908373ffffffffffffffffffffffffffffffffffffffff16021790555050565b60008054906101000a900473ffffffffffffffffffffffffffffffffffffffff1681565b60016020528060005260406000206000915090508060000160009054906101000a900473ffffffffffffffffffffffffffffffffffffffff16908060010154908060020160009054906101000a900460ff16905083565b6000813590506103cb81610637565b92915050565b6000815190506103e081610637565b92915050565b6000815190506103f58161064e565b92915050565b60008135905061040a81610665565b92915050565b60006020828403121561042257600080fd5b6000610430848285016103bc565b91505092915050565b60006020828403121561044b57600080fd5b6000610459848285016103d1565b91505092915050565b60006020828403121561047457600080fd5b6000610482848285016103e6565b91505092915050565b60006020828403121561049d57600080fd5b60006104ab848285016103fb565b91505092915050565b6104bd816105c0565b82525050565b6104cc816105d2565b82525050565b6104db816105fe565b82525050565b60006020820190506104f660008301846104b4565b92915050565b600060608201905061051160008301866104b4565b61051e60208301856104b4565b61052b60408301846104d2565b949350505050565b600060608201905061054860008301866104b4565b61055560208301856104d2565b61056260408301846104c3565b949350505050565b6000610575826105fe565b9150610580836105fe565b9250827fffffffffffffffffffffffffffffffffffffffffffffffffffffffffffffffff038211156105b5576105b4610608565b5b828201905092915050565b60006105cb826105de565b9050919050565b60008115159050919050565b600073ffffffffffffffffffffffffffffffffffffffff82169050919050565b6000819050919050565b7f4e487b7100000000000000000000000000000000000000000000000000000000600052601160045260246000fd5b610640816105c0565b811461064b57600080fd5b50565b610657816105d2565b811461066257600080fd5b50565b61066e816105fe565b811461067957600080fd5b5056fea264697066735822122027d6185e59fe6ea8e77b6d39b93a95ab05f836ab97d79e78f299b3c63ef549f464736f6c63430008000033",
  "immutableReferences": {},
  "source": "// SPDX-License-Identifier: GPL-3.0\npragma solidity >=0.5.0 <0.9.0;\n\n\nimport \"@openzeppelin/contracts/token/ERC20/IERC20.sol\";\nimport \"./interfaces/IVoting.sol\";\n\ncontract TransportCity {\n    constructor() {\n\n    }\n    \n    address public voting_contract_address;\n\n    struct User {\n        address customer;\n        uint total_tokens;\n        bool active;\n    }\n\n    mapping(address => User) public UserList;\n\n    // [ (address => {customer, total_tokens, active}), \n    //   (address => {customer, total_tokens, active}) ]\n\n    function setVotingContractAddress(address _address) public {\n       voting_contract_address = _address;\n    }\n\n    function getPayment(uint _tokens) public {\n        IVoting _voting_contract = IVoting(voting_contract_address);\n        address _transport_token_address = _voting_contract.getTransportTokenAddress();\n        if (_voting_contract.checkVoter(msg.sender)) {\n            IERC20(_transport_token_address).transferFrom(msg.sender, address(this), _tokens);\n            UserList[msg.sender].total_tokens += _tokens;\n            \n        }\n    }\n}",
  "sourcePath": "/Users/pro/Development/blockchain/course_solidity/contracts/TransportCity.sol",
  "compiler": {
    "name": "solc",
    "version": "0.8.0+commit.c7dfd78e.Emscripten.clang"
  },
  "schemaVersion": "3.3.3",
  "updatedAt": "2021-05-15T12:47:17.994Z",
  "networkType": "ethereum",
  "devdoc": {
    "kind": "dev",
    "methods": {},
    "version": 1
  },
  "userdoc": {
    "kind": "user",
    "methods": {},
    "version": 1
  }
}