{
  "contractName": "Voting",
  "abi": [
    {
      "inputs": [
        {
          "internalType": "uint256",
          "name": "_value",
          "type": "uint256"
        }
      ],
      "stateMutability": "nonpayable",
      "type": "constructor"
    },
    {
      "inputs": [
        {
          "internalType": "uint256",
          "name": "",
          "type": "uint256"
        }
      ],
      "name": "Candidates",
      "outputs": [
        {
          "internalType": "string",
          "name": "candidateName",
          "type": "string"
        },
        {
          "internalType": "uint256",
          "name": "politicalParty_id",
          "type": "uint256"
        },
        {
          "internalType": "uint256",
          "name": "amount",
          "type": "uint256"
        }
      ],
      "stateMutability": "view",
      "type": "function",
      "constant": true
    },
    {
      "inputs": [
        {
          "internalType": "uint256",
          "name": "",
          "type": "uint256"
        }
      ],
      "name": "PoliticalParties",
      "outputs": [
        {
          "internalType": "string",
          "name": "politicalPartyName",
          "type": "string"
        }
      ],
      "stateMutability": "view",
      "type": "function",
      "constant": true
    },
    {
      "inputs": [
        {
          "internalType": "address",
          "name": "",
          "type": "address"
        }
      ],
      "name": "Voters",
      "outputs": [
        {
          "internalType": "uint256",
          "name": "electedid",
          "type": "uint256"
        },
        {
          "internalType": "bool",
          "name": "vote",
          "type": "bool"
        }
      ],
      "stateMutability": "view",
      "type": "function",
      "constant": true
    },
    {
      "inputs": [],
      "name": "candidate_id",
      "outputs": [
        {
          "internalType": "uint256",
          "name": "",
          "type": "uint256"
        }
      ],
      "stateMutability": "view",
      "type": "function",
      "constant": true
    },
    {
      "inputs": [],
      "name": "politicalParty_id",
      "outputs": [
        {
          "internalType": "uint256",
          "name": "",
          "type": "uint256"
        }
      ],
      "stateMutability": "view",
      "type": "function",
      "constant": true
    },
    {
      "inputs": [],
      "name": "value",
      "outputs": [
        {
          "internalType": "uint256",
          "name": "",
          "type": "uint256"
        }
      ],
      "stateMutability": "view",
      "type": "function",
      "constant": true
    },
    {
      "inputs": [],
      "name": "winner",
      "outputs": [
        {
          "internalType": "string",
          "name": "",
          "type": "string"
        }
      ],
      "stateMutability": "view",
      "type": "function",
      "constant": true
    },
    {
      "inputs": [
        {
          "internalType": "string",
          "name": "_politicalPartyName",
          "type": "string"
        }
      ],
      "name": "addPoliticalParty",
      "outputs": [],
      "stateMutability": "nonpayable",
      "type": "function"
    },
    {
      "inputs": [
        {
          "internalType": "string",
          "name": "_candidateName",
          "type": "string"
        },
        {
          "internalType": "uint256",
          "name": "_politicalParty_id",
          "type": "uint256"
        }
      ],
      "name": "addCandidate",
      "outputs": [],
      "stateMutability": "nonpayable",
      "type": "function"
    }
  ],
  "bytecode": "0x608060405234801561001057600080fd5b50604051610c42380380610c4283398181016040528101906100329190610094565b336000806101000a81548173ffffffffffffffffffffffffffffffffffffffff021916908373ffffffffffffffffffffffffffffffffffffffff16021790555080600181905550506100de565b60008151905061008e816100c7565b92915050565b6000602082840312156100a657600080fd5b60006100b48482850161007f565b91505092915050565b6000819050919050565b6100d0816100bd565b81146100db57600080fd5b50565b610b55806100ed6000396000f3fe608060405234801561001057600080fd5b50600436106100935760003560e01c8063ca69c50811610066578063ca69c50814610136578063dfbf53ae14610154578063e23cec7b14610172578063fae9c4841461018e578063fdedaa8a146101aa57610093565b8063026936e914610098578063283ed268146100c8578063290e9212146100e65780633fa4f24514610118575b600080fd5b6100b260048036038101906100ad9190610757565b6101db565b6040516100bf91906107d7565b60405180910390f35b6100d0610281565b6040516100dd9190610837565b60405180910390f35b61010060048036038101906100fb9190610757565b610287565b60405161010f939291906107f9565b60405180910390f35b610120610339565b60405161012d9190610837565b60405180910390f35b61013e61033f565b60405161014b9190610837565b60405180910390f35b61015c610345565b60405161016991906107d7565b60405180910390f35b61018c60048036038101906101879190610703565b6103d3565b005b6101a860048036038101906101a391906106c2565b610491565b005b6101c460048036038101906101bf9190610699565b610533565b6040516101d2929190610852565b60405180910390f35b60056020528060005260406000206000915090508060000180546101fe906109d8565b80601f016020809104026020016040519081016040528092919081815260200182805461022a906109d8565b80156102775780601f1061024c57610100808354040283529160200191610277565b820191906000526020600020905b81548152906001019060200180831161025a57829003601f168201915b5050505050905081565b60025481565b60066020528060005260406000206000915090508060000180546102aa906109d8565b80601f01602080910402602001604051908101604052809291908181526020018280546102d6906109d8565b80156103235780601f106102f857610100808354040283529160200191610323565b820191906000526020600020905b81548152906001019060200180831161030657829003601f168201915b5050505050908060010154908060020154905083565b60015481565b60035481565b60048054610352906109d8565b80601f016020809104026020016040519081016040528092919081815260200182805461037e906109d8565b80156103cb5780601f106103a0576101008083540402835291602001916103cb565b820191906000526020600020905b8154815290600101906020018083116103ae57829003601f168201915b505050505081565b60008054906101000a900473ffffffffffffffffffffffffffffffffffffffff1673ffffffffffffffffffffffffffffffffffffffff163373ffffffffffffffffffffffffffffffffffffffff161461042b57600080fd5b6003600081548092919061043e90610a0a565b919050555081600660006003548152602001908152602001600020600001908051906020019061046f929190610564565b5080600660006003548152602001908152602001600020600101819055505050565b60008054906101000a900473ffffffffffffffffffffffffffffffffffffffff1673ffffffffffffffffffffffffffffffffffffffff163373ffffffffffffffffffffffffffffffffffffffff16146104e957600080fd5b6001600260008282546104fc91906108f8565b9250508190555080600560006002548152602001908152602001600020600001908051906020019061052f929190610564565b5050565b60076020528060005260406000206000915090508060000154908060010160009054906101000a900460ff16905082565b828054610570906109d8565b90600052602060002090601f01602090048101928261059257600085556105d9565b82601f106105ab57805160ff19168380011785556105d9565b828001600101855582156105d9579182015b828111156105d85782518255916020019190600101906105bd565b5b5090506105e691906105ea565b5090565b5b808211156106035760008160009055506001016105eb565b5090565b600061061a610615846108ac565b61087b565b90508281526020810184848401111561063257600080fd5b61063d848285610996565b509392505050565b60008135905061065481610af1565b92915050565b600082601f83011261066b57600080fd5b813561067b848260208601610607565b91505092915050565b60008135905061069381610b08565b92915050565b6000602082840312156106ab57600080fd5b60006106b984828501610645565b91505092915050565b6000602082840312156106d457600080fd5b600082013567ffffffffffffffff8111156106ee57600080fd5b6106fa8482850161065a565b91505092915050565b6000806040838503121561071657600080fd5b600083013567ffffffffffffffff81111561073057600080fd5b61073c8582860161065a565b925050602061074d85828601610684565b9150509250929050565b60006020828403121561076957600080fd5b600061077784828501610684565b91505092915050565b61078981610960565b82525050565b600061079a826108dc565b6107a481856108e7565b93506107b48185602086016109a5565b6107bd81610ae0565b840191505092915050565b6107d18161098c565b82525050565b600060208201905081810360008301526107f1818461078f565b905092915050565b60006060820190508181036000830152610813818661078f565b905061082260208301856107c8565b61082f60408301846107c8565b949350505050565b600060208201905061084c60008301846107c8565b92915050565b600060408201905061086760008301856107c8565b6108746020830184610780565b9392505050565b6000604051905081810181811067ffffffffffffffff821117156108a2576108a1610ab1565b5b8060405250919050565b600067ffffffffffffffff8211156108c7576108c6610ab1565b5b601f19601f8301169050602081019050919050565b600081519050919050565b600082825260208201905092915050565b60006109038261098c565b915061090e8361098c565b9250827fffffffffffffffffffffffffffffffffffffffffffffffffffffffffffffffff0382111561094357610942610a53565b5b828201905092915050565b60006109598261096c565b9050919050565b60008115159050919050565b600073ffffffffffffffffffffffffffffffffffffffff82169050919050565b6000819050919050565b82818337600083830152505050565b60005b838110156109c35780820151818401526020810190506109a8565b838111156109d2576000848401525b50505050565b600060028204905060018216806109f057607f821691505b60208210811415610a0457610a03610a82565b5b50919050565b6000610a158261098c565b91507fffffffffffffffffffffffffffffffffffffffffffffffffffffffffffffffff821415610a4857610a47610a53565b5b600182019050919050565b7f4e487b7100000000000000000000000000000000000000000000000000000000600052601160045260246000fd5b7f4e487b7100000000000000000000000000000000000000000000000000000000600052602260045260246000fd5b7f4e487b7100000000000000000000000000000000000000000000000000000000600052604160045260246000fd5b6000601f19601f8301169050919050565b610afa8161094e565b8114610b0557600080fd5b50565b610b118161098c565b8114610b1c57600080fd5b5056fea2646970667358221220d85fb57137205c8c081b9bfd0f1603863f38581a6fceeedf66e785bad214226c64736f6c63430008000033",
  "immutableReferences": {},
  "source": "// SPDX-License-Identifier: GPL-3.0\npragma solidity >=0.5.0 <0.9.0;\n\ncontract Voting {\n\n  /*list of PoliticalParties and candidates\n  1.   =>   \n  2. =>   \n  3.  =>   \n  */\n\n  address owner;\n  uint public value;\n\n  constructor (uint _value) {\n    owner = msg.sender;\n    value = _value;\n }\n\n  // Counters\n  uint public politicalParty_id;\n  uint public candidate_id;\n  string public winner;\n\n  // Mappinngs\n  mapping (uint => politicalParty) public PoliticalParties;\n  mapping (uint => candidate) public Candidates;\n  mapping (address => voter) public Voters;\n\n  // Structure of politicalParty\n\n  struct politicalParty {\n    string politicalPartyName;\n  }\n\n  // Structure of candidate\n  struct candidate {\n    string candidateName;\n    uint politicalParty_id;\n    uint amount;\n  }\n\n  // Structure of Voters\n  struct voter {\n      uint electedid;\n      bool vote;\n  }\n\n  modifier onlyOwner {require(msg.sender == owner);_;}\n\n\n\n  function addPoliticalParty (string memory _politicalPartyName) onlyOwner public {\n    politicalParty_id += 1;\n    PoliticalParties[politicalParty_id].politicalPartyName = _politicalPartyName;\n  }\n\n  function addCandidate (string memory _candidateName, uint _politicalParty_id) onlyOwner public {\n    candidate_id++;\n    Candidates[candidate_id].candidateName=_candidateName;\n    Candidates[candidate_id].politicalParty_id= _politicalParty_id;\n  }\n  // 1.  \n  // 2.   id \n\n  //  function VotingProcess (uint _candidate_id) public {\n  //   require (_candidate_id <= candidate_id,\"There are no candidates with this id\");\n  //   require (Voters[msg.sender].vote != true,\"You have already voted!\");\n  //   Voters[msg.sender].electedid = _candidate_id;\n  //   Voters[msg.sender].vote = true;\n  //   Candidates[_candidate_id].amount++;\n  //   }\n\n//   function WhoIsTheWinner () public {\n//         int max;\n\n//             for (int8 i; i < candidate_id;i++) {\n//                 if (Candidates[i].amount > max) {\n//                     max = Candidates[i].amount;\n//                     winner = Candidates[i].candidateName;\n//                 }\n//             }\n//     }\n\n}\n",
  "sourcePath": "/Users/pro/Development/blockchain/course_solidity/contracts/Voting.sol",
  "compiler": {
    "name": "solc",
    "version": "0.8.0+commit.c7dfd78e.Emscripten.clang"
  },
  "schemaVersion": "3.3.3",
  "updatedAt": "2021-05-08T10:15:42.469Z",
  "networkType": "ethereum",
  "devdoc": {
    "kind": "dev",
    "methods": {},
    "version": 1
  },
  "userdoc": {
    "kind": "user",
    "methods": {},
    "version": 1
  }
}