{
  "contractName": "Voting",
  "abi": [
    {
      "inputs": [
        {
          "internalType": "uint256",
          "name": "_value",
          "type": "uint256"
        }
      ],
      "stateMutability": "nonpayable",
      "type": "constructor"
    },
    {
      "anonymous": false,
      "inputs": [
        {
          "indexed": false,
          "internalType": "address",
          "name": "_sender",
          "type": "address"
        }
      ],
      "name": "TransferTokenGetMoney",
      "type": "event"
    },
    {
      "inputs": [
        {
          "internalType": "uint256",
          "name": "",
          "type": "uint256"
        }
      ],
      "name": "Candidates",
      "outputs": [
        {
          "internalType": "string",
          "name": "candidateName",
          "type": "string"
        },
        {
          "internalType": "uint256",
          "name": "politicalParty_id",
          "type": "uint256"
        },
        {
          "internalType": "uint256",
          "name": "amount",
          "type": "uint256"
        }
      ],
      "stateMutability": "view",
      "type": "function",
      "constant": true
    },
    {
      "inputs": [
        {
          "internalType": "uint256",
          "name": "",
          "type": "uint256"
        }
      ],
      "name": "PoliticalParties",
      "outputs": [
        {
          "internalType": "string",
          "name": "politicalPartyName",
          "type": "string"
        }
      ],
      "stateMutability": "view",
      "type": "function",
      "constant": true
    },
    {
      "inputs": [
        {
          "internalType": "address",
          "name": "",
          "type": "address"
        }
      ],
      "name": "Voters",
      "outputs": [
        {
          "internalType": "uint256",
          "name": "electedid",
          "type": "uint256"
        },
        {
          "internalType": "bool",
          "name": "vote",
          "type": "bool"
        }
      ],
      "stateMutability": "view",
      "type": "function",
      "constant": true
    },
    {
      "inputs": [],
      "name": "candidate_id",
      "outputs": [
        {
          "internalType": "uint256",
          "name": "",
          "type": "uint256"
        }
      ],
      "stateMutability": "view",
      "type": "function",
      "constant": true
    },
    {
      "inputs": [],
      "name": "politicalParty_id",
      "outputs": [
        {
          "internalType": "uint256",
          "name": "",
          "type": "uint256"
        }
      ],
      "stateMutability": "view",
      "type": "function",
      "constant": true
    },
    {
      "inputs": [],
      "name": "transport_token_address",
      "outputs": [
        {
          "internalType": "address",
          "name": "",
          "type": "address"
        }
      ],
      "stateMutability": "view",
      "type": "function",
      "constant": true
    },
    {
      "inputs": [],
      "name": "value",
      "outputs": [
        {
          "internalType": "uint256",
          "name": "",
          "type": "uint256"
        }
      ],
      "stateMutability": "view",
      "type": "function",
      "constant": true
    },
    {
      "inputs": [],
      "name": "vote_token_address",
      "outputs": [
        {
          "internalType": "address",
          "name": "",
          "type": "address"
        }
      ],
      "stateMutability": "view",
      "type": "function",
      "constant": true
    },
    {
      "inputs": [],
      "name": "winner",
      "outputs": [
        {
          "internalType": "string",
          "name": "",
          "type": "string"
        }
      ],
      "stateMutability": "view",
      "type": "function",
      "constant": true
    },
    {
      "inputs": [
        {
          "internalType": "address",
          "name": "_vote_token_address",
          "type": "address"
        }
      ],
      "name": "setVoteTokenAddress",
      "outputs": [],
      "stateMutability": "nonpayable",
      "type": "function"
    },
    {
      "inputs": [
        {
          "internalType": "address",
          "name": "_address",
          "type": "address"
        }
      ],
      "name": "checkVoter",
      "outputs": [
        {
          "internalType": "bool",
          "name": "",
          "type": "bool"
        }
      ],
      "stateMutability": "view",
      "type": "function",
      "constant": true
    },
    {
      "inputs": [
        {
          "internalType": "address",
          "name": "_transport_token_address",
          "type": "address"
        }
      ],
      "name": "setTransportTokenAddress",
      "outputs": [],
      "stateMutability": "nonpayable",
      "type": "function"
    },
    {
      "inputs": [],
      "name": "getTransportTokenAddress",
      "outputs": [
        {
          "internalType": "address",
          "name": "",
          "type": "address"
        }
      ],
      "stateMutability": "view",
      "type": "function",
      "constant": true
    },
    {
      "inputs": [
        {
          "internalType": "string",
          "name": "_politicalPartyName",
          "type": "string"
        }
      ],
      "name": "addPoliticalParty",
      "outputs": [],
      "stateMutability": "nonpayable",
      "type": "function"
    },
    {
      "inputs": [
        {
          "internalType": "string",
          "name": "_candidateName",
          "type": "string"
        },
        {
          "internalType": "uint256",
          "name": "_politicalParty_id",
          "type": "uint256"
        }
      ],
      "name": "addCandidate",
      "outputs": [],
      "stateMutability": "nonpayable",
      "type": "function"
    },
    {
      "inputs": [],
      "name": "registrationVoter",
      "outputs": [],
      "stateMutability": "payable",
      "type": "function",
      "payable": true
    },
    {
      "inputs": [
        {
          "internalType": "uint256",
          "name": "_candidat_id",
          "type": "uint256"
        }
      ],
      "name": "VotingProcess",
      "outputs": [],
      "stateMutability": "nonpayable",
      "type": "function"
    }
  ],
  "bytecode": "0x60806040523480156200001157600080fd5b506040516200153d3803806200153d83398181016040528101906200003791906200009c565b336000806101000a81548173ffffffffffffffffffffffffffffffffffffffff021916908373ffffffffffffffffffffffffffffffffffffffff1602179055508060018190555050620000ec565b6000815190506200009681620000d2565b92915050565b600060208284031215620000af57600080fd5b6000620000bf8482850162000085565b91505092915050565b6000819050919050565b620000dd81620000c8565b8114620000e957600080fd5b50565b61144180620000fc6000396000f3fe6080604052600436106100fe5760003560e01c80635944e5bb11610095578063dfbf53ae11610064578063dfbf53ae14610339578063e23cec7b14610364578063fae9c4841461038d578063fdedaa8a146103b6578063fee4d174146103f4576100fe565b80635944e5bb1461027b5780639b8ebc54146102a6578063a37f01c7146102e3578063ca69c5081461030e576100fe565b80632208285f116100d15780632208285f146101bb578063283ed268146101e6578063290e9212146102115780633fa4f24514610250576100fe565b8063026936e91461010357806303275ad0146101405780630f350d34146101695780631902abae14610192575b600080fd5b34801561010f57600080fd5b5061012a60048036038101906101259190610f06565b6103fe565b604051610137919061107a565b60405180910390f35b34801561014c57600080fd5b5061016760048036038101906101629190610e1f565b6104a4565b005b34801561017557600080fd5b50610190600480360381019061018b9190610e1f565b610540565b005b34801561019e57600080fd5b506101b960048036038101906101b49190610f06565b6105dc565b005b3480156101c757600080fd5b506101d061080f565b6040516101dd9190610fe4565b60405180910390f35b3480156101f257600080fd5b506101fb610839565b60405161020891906110fa565b60405180910390f35b34801561021d57600080fd5b5061023860048036038101906102339190610f06565b61083f565b6040516102479392919061109c565b60405180910390f35b34801561025c57600080fd5b506102656108f1565b60405161027291906110fa565b60405180910390f35b34801561028757600080fd5b506102906108f7565b60405161029d9190610fe4565b60405180910390f35b3480156102b257600080fd5b506102cd60048036038101906102c89190610e1f565b61091d565b6040516102da919061105f565b60405180910390f35b3480156102ef57600080fd5b506102f8610987565b6040516103059190610fe4565b60405180910390f35b34801561031a57600080fd5b506103236109ad565b60405161033091906110fa565b60405180910390f35b34801561034557600080fd5b5061034e6109b3565b60405161035b919061107a565b60405180910390f35b34801561037057600080fd5b5061038b60048036038101906103869190610eb2565b610a41565b005b34801561039957600080fd5b506103b460048036038101906103af9190610e71565b610aff565b005b3480156103c257600080fd5b506103dd60048036038101906103d89190610e1f565b610ba1565b6040516103eb929190611115565b60405180910390f35b6103fc610bd2565b005b6007602052806000526040600020600091509050806000018054610421906112ad565b80601f016020809104026020016040519081016040528092919081815260200182805461044d906112ad565b801561049a5780601f1061046f5761010080835404028352916020019161049a565b820191906000526020600020905b81548152906001019060200180831161047d57829003601f168201915b5050505050905081565b60008054906101000a900473ffffffffffffffffffffffffffffffffffffffff1673ffffffffffffffffffffffffffffffffffffffff163373ffffffffffffffffffffffffffffffffffffffff16146104fc57600080fd5b80600360006101000a81548173ffffffffffffffffffffffffffffffffffffffff021916908373ffffffffffffffffffffffffffffffffffffffff16021790555050565b60008054906101000a900473ffffffffffffffffffffffffffffffffffffffff1673ffffffffffffffffffffffffffffffffffffffff163373ffffffffffffffffffffffffffffffffffffffff161461059857600080fd5b80600260006101000a81548173ffffffffffffffffffffffffffffffffffffffff021916908373ffffffffffffffffffffffffffffffffffffffff16021790555050565b6000600260009054906101000a900473ffffffffffffffffffffffffffffffffffffffff1690508073ffffffffffffffffffffffffffffffffffffffff166323b872dd3330600a6040518463ffffffff1660e01b815260040161064193929190610fff565b602060405180830381600087803b15801561065b57600080fd5b505af115801561066f573d6000803e3d6000fd5b505050506040513d601f19601f820116820180604052508101906106939190610e48565b506000600360009054906101000a900473ffffffffffffffffffffffffffffffffffffffff1690508073ffffffffffffffffffffffffffffffffffffffff1663a9059cbb33600a6040518363ffffffff1660e01b81526004016106f7929190611036565b602060405180830381600087803b15801561071157600080fd5b505af1158015610725573d6000803e3d6000fd5b505050506040513d601f19601f820116820180604052508101906107499190610e48565b50600160086000858152602001908152602001600020600201600082825461077191906111bb565b925050819055506001600960003373ffffffffffffffffffffffffffffffffffffffff1673ffffffffffffffffffffffffffffffffffffffff16815260200190815260200160002060010160006101000a81548160ff0219169083151502179055507f054972f8c9e8064d238d45368703d3e447d0cf7c289c4818b7fe21e798acc7fb336040516108029190610fe4565b60405180910390a1505050565b6000600360009054906101000a900473ffffffffffffffffffffffffffffffffffffffff16905090565b60045481565b6008602052806000526040600020600091509050806000018054610862906112ad565b80601f016020809104026020016040519081016040528092919081815260200182805461088e906112ad565b80156108db5780601f106108b0576101008083540402835291602001916108db565b820191906000526020600020905b8154815290600101906020018083116108be57829003601f168201915b5050505050908060010154908060020154905083565b60015481565b600360009054906101000a900473ffffffffffffffffffffffffffffffffffffffff1681565b6000600960008373ffffffffffffffffffffffffffffffffffffffff1673ffffffffffffffffffffffffffffffffffffffff16815260200190815260200160002060010160009054906101000a900460ff161561097d5760019050610982565b600090505b919050565b600260009054906101000a900473ffffffffffffffffffffffffffffffffffffffff1681565b60055481565b600680546109c0906112ad565b80601f01602080910402602001604051908101604052809291908181526020018280546109ec906112ad565b8015610a395780601f10610a0e57610100808354040283529160200191610a39565b820191906000526020600020905b815481529060010190602001808311610a1c57829003601f168201915b505050505081565b60008054906101000a900473ffffffffffffffffffffffffffffffffffffffff1673ffffffffffffffffffffffffffffffffffffffff163373ffffffffffffffffffffffffffffffffffffffff1614610a9957600080fd5b60056000815480929190610aac906112df565b9190505550816008600060055481526020019081526020016000206000019080519060200190610add929190610cd5565b5080600860006005548152602001908152602001600020600101819055505050565b60008054906101000a900473ffffffffffffffffffffffffffffffffffffffff1673ffffffffffffffffffffffffffffffffffffffff163373ffffffffffffffffffffffffffffffffffffffff1614610b5757600080fd5b600160046000828254610b6a91906111bb565b92505081905550806007600060045481526020019081526020016000206000019080519060200190610b9d929190610cd5565b5050565b60096020528060005260406000206000915090508060000154908060010160009054906101000a900460ff16905082565b67016345785d8a00003414610c1c576040517f08c379a0000000000000000000000000000000000000000000000000000000008152600401610c13906110da565b60405180910390fd5b6000600260009054906101000a900473ffffffffffffffffffffffffffffffffffffffff1690508073ffffffffffffffffffffffffffffffffffffffff1663a9059cbb33600a6040518363ffffffff1660e01b8152600401610c7f929190611036565b602060405180830381600087803b158015610c9957600080fd5b505af1158015610cad573d6000803e3d6000fd5b505050506040513d601f19601f82011682018060405250810190610cd19190610e48565b5050565b828054610ce1906112ad565b90600052602060002090601f016020900481019282610d035760008555610d4a565b82601f10610d1c57805160ff1916838001178555610d4a565b82800160010185558215610d4a579182015b82811115610d49578251825591602001919060010190610d2e565b5b509050610d579190610d5b565b5090565b5b80821115610d74576000816000905550600101610d5c565b5090565b6000610d8b610d868461116f565b61113e565b905082815260208101848484011115610da357600080fd5b610dae84828561126b565b509392505050565b600081359050610dc5816113c6565b92915050565b600081519050610dda816113dd565b92915050565b600082601f830112610df157600080fd5b8135610e01848260208601610d78565b91505092915050565b600081359050610e19816113f4565b92915050565b600060208284031215610e3157600080fd5b6000610e3f84828501610db6565b91505092915050565b600060208284031215610e5a57600080fd5b6000610e6884828501610dcb565b91505092915050565b600060208284031215610e8357600080fd5b600082013567ffffffffffffffff811115610e9d57600080fd5b610ea984828501610de0565b91505092915050565b60008060408385031215610ec557600080fd5b600083013567ffffffffffffffff811115610edf57600080fd5b610eeb85828601610de0565b9250506020610efc85828601610e0a565b9150509250929050565b600060208284031215610f1857600080fd5b6000610f2684828501610e0a565b91505092915050565b610f3881611211565b82525050565b610f4781611223565b82525050565b610f5681611259565b82525050565b6000610f678261119f565b610f7181856111aa565b9350610f8181856020860161127a565b610f8a816113b5565b840191505092915050565b6000610fa26018836111aa565b91507f6e6f7420636f7272656374206568746572732076616c756500000000000000006000830152602082019050919050565b610fde8161124f565b82525050565b6000602082019050610ff96000830184610f2f565b92915050565b60006060820190506110146000830186610f2f565b6110216020830185610f2f565b61102e6040830184610f4d565b949350505050565b600060408201905061104b6000830185610f2f565b6110586020830184610f4d565b9392505050565b60006020820190506110746000830184610f3e565b92915050565b600060208201905081810360008301526110948184610f5c565b905092915050565b600060608201905081810360008301526110b68186610f5c565b90506110c56020830185610fd5565b6110d26040830184610fd5565b949350505050565b600060208201905081810360008301526110f381610f95565b9050919050565b600060208201905061110f6000830184610fd5565b92915050565b600060408201905061112a6000830185610fd5565b6111376020830184610f3e565b9392505050565b6000604051905081810181811067ffffffffffffffff8211171561116557611164611386565b5b8060405250919050565b600067ffffffffffffffff82111561118a57611189611386565b5b601f19601f8301169050602081019050919050565b600081519050919050565b600082825260208201905092915050565b60006111c68261124f565b91506111d18361124f565b9250827fffffffffffffffffffffffffffffffffffffffffffffffffffffffffffffffff0382111561120657611205611328565b5b828201905092915050565b600061121c8261122f565b9050919050565b60008115159050919050565b600073ffffffffffffffffffffffffffffffffffffffff82169050919050565b6000819050919050565b60006112648261124f565b9050919050565b82818337600083830152505050565b60005b8381101561129857808201518184015260208101905061127d565b838111156112a7576000848401525b50505050565b600060028204905060018216806112c557607f821691505b602082108114156112d9576112d8611357565b5b50919050565b60006112ea8261124f565b91507fffffffffffffffffffffffffffffffffffffffffffffffffffffffffffffffff82141561131d5761131c611328565b5b600182019050919050565b7f4e487b7100000000000000000000000000000000000000000000000000000000600052601160045260246000fd5b7f4e487b7100000000000000000000000000000000000000000000000000000000600052602260045260246000fd5b7f4e487b7100000000000000000000000000000000000000000000000000000000600052604160045260246000fd5b6000601f19601f8301169050919050565b6113cf81611211565b81146113da57600080fd5b50565b6113e681611223565b81146113f157600080fd5b50565b6113fd8161124f565b811461140857600080fd5b5056fea264697066735822122047aecea717c789da3aa0e40f0a3cb583253dd7a38daf28ea0bba4a27127c807164736f6c63430008000033",
  "immutableReferences": {},
  "source": "// SPDX-License-Identifier: GPL-3.0\npragma solidity >=0.5.0 <0.9.0;\n\nimport \"@openzeppelin/contracts/token/ERC20/IERC20.sol\";\nimport \"@openzeppelin/contracts/token/ERC721/IERC721.sol\";\ncontract Voting {\n\n  /*list of PoliticalParties and candidates\n  1.   =>   \n  2. =>   \n  3.  =>   \n  VM\n  storage\n  memory\n  stack\n  */\n  event TransferTokenGetMoney(address _sender);\n\n  address owner;\n  uint public value;\n  address public vote_token_address;\n  address public transport_token_address;\n\n  constructor (uint _value) {\n    owner = msg.sender;\n    value = _value;\n }\n\n  // Counters\n  uint public politicalParty_id;\n  uint public candidate_id;\n  string public winner;\n\n  // Mappinngs\n  mapping (uint => politicalParty) public PoliticalParties;\n  mapping (uint => candidate) public Candidates;\n  mapping (address => voter) public Voters;\n\n  // Structure of politicalParty\n\n  struct politicalParty {\n    string politicalPartyName;\n  }\n\n  // Structure of candidate\n  struct candidate {\n    string candidateName;\n    uint politicalParty_id;\n    uint amount;\n  }\n\n  // Structure of Voters\n  struct voter {\n      uint electedid;\n      bool vote;\n  }\n\n  modifier onlyOwner {require(msg.sender == owner);_;}\n\n  function setVoteTokenAddress (address _vote_token_address) onlyOwner public {\n    vote_token_address = _vote_token_address;\n  }\n\n  function checkVoter(address _address) external view returns(bool) {\n    if (Voters[_address].vote) {\n      return true;\n    } else {\n      return false;\n    }\n  }\n\n  function setTransportTokenAddress(address _transport_token_address)  onlyOwner public {\n    transport_token_address = _transport_token_address;\n  }\n\n  function getTransportTokenAddress() external view returns(address) {\n    return transport_token_address;\n  }\n\n  function addPoliticalParty (string memory _politicalPartyName) onlyOwner public {\n    politicalParty_id += 1;\n    PoliticalParties[politicalParty_id].politicalPartyName = _politicalPartyName;\n  }\n\n  function addCandidate (string memory _candidateName, uint _politicalParty_id) onlyOwner public {\n    candidate_id++;\n    Candidates[candidate_id].candidateName=_candidateName;\n    Candidates[candidate_id].politicalParty_id= _politicalParty_id;\n  }\n\n  function registrationVoter() public payable {\n    require(msg.value == 0.1 ether,\"not correct ehters value\");\n    IERC20 _token = IERC20(vote_token_address);\n    _token.transfer(msg.sender, 10);\n  }\n\n  function VotingProcess(uint _candidat_id) public {\n    IERC20 _vote_token = IERC20(vote_token_address);\n    _vote_token.transferFrom(msg.sender, address(this), 10);\n    IERC20 _transport_token = IERC20(transport_token_address);\n    _transport_token.transfer(msg.sender, 10);\n    Candidates[_candidat_id].amount += 1;\n    Voters[msg.sender].vote = true;\n    emit TransferTokenGetMoney(msg.sender);\n  }\n\n\n  // function createNFTVotingToken(string memory _id_code) public {\n\n  // }\n\n  /*\n  1.    (Transport tokens, TR-TRN)\n     - in folder migration\n     - total supply, transfer\n  2.     10    . \n     -      ( )\n  3.     \n     -      ..\n  4.           \n  5.           \n\n  */\n\n}\n",
  "sourcePath": "/Users/pro/Development/blockchain/course_solidity/contracts/Voting.sol",
  "compiler": {
    "name": "solc",
    "version": "0.8.0+commit.c7dfd78e.Emscripten.clang"
  },
  "schemaVersion": "3.3.3",
  "updatedAt": "2021-05-15T12:47:17.002Z",
  "networkType": "ethereum",
  "devdoc": {
    "kind": "dev",
    "methods": {},
    "version": 1
  },
  "userdoc": {
    "kind": "user",
    "methods": {},
    "version": 1
  }
}