{
  "contractName": "Voting",
  "abi": [
    {
      "inputs": [
        {
          "internalType": "uint256",
          "name": "_value",
          "type": "uint256"
        }
      ],
      "stateMutability": "nonpayable",
      "type": "constructor"
    },
    {
      "anonymous": false,
      "inputs": [
        {
          "indexed": false,
          "internalType": "address",
          "name": "_sender",
          "type": "address"
        }
      ],
      "name": "TransferTokenGetMoney",
      "type": "event"
    },
    {
      "inputs": [
        {
          "internalType": "uint256",
          "name": "",
          "type": "uint256"
        }
      ],
      "name": "Candidates",
      "outputs": [
        {
          "internalType": "string",
          "name": "candidateName",
          "type": "string"
        },
        {
          "internalType": "uint256",
          "name": "politicalParty_id",
          "type": "uint256"
        },
        {
          "internalType": "uint256",
          "name": "amount",
          "type": "uint256"
        }
      ],
      "stateMutability": "view",
      "type": "function",
      "constant": true
    },
    {
      "inputs": [
        {
          "internalType": "uint256",
          "name": "",
          "type": "uint256"
        }
      ],
      "name": "PoliticalParties",
      "outputs": [
        {
          "internalType": "string",
          "name": "politicalPartyName",
          "type": "string"
        }
      ],
      "stateMutability": "view",
      "type": "function",
      "constant": true
    },
    {
      "inputs": [
        {
          "internalType": "address",
          "name": "",
          "type": "address"
        }
      ],
      "name": "Voters",
      "outputs": [
        {
          "internalType": "uint256",
          "name": "electedid",
          "type": "uint256"
        },
        {
          "internalType": "bool",
          "name": "vote",
          "type": "bool"
        }
      ],
      "stateMutability": "view",
      "type": "function",
      "constant": true
    },
    {
      "inputs": [],
      "name": "candidate_id",
      "outputs": [
        {
          "internalType": "uint256",
          "name": "",
          "type": "uint256"
        }
      ],
      "stateMutability": "view",
      "type": "function",
      "constant": true
    },
    {
      "inputs": [],
      "name": "politicalParty_id",
      "outputs": [
        {
          "internalType": "uint256",
          "name": "",
          "type": "uint256"
        }
      ],
      "stateMutability": "view",
      "type": "function",
      "constant": true
    },
    {
      "inputs": [],
      "name": "transport_token_address",
      "outputs": [
        {
          "internalType": "address",
          "name": "",
          "type": "address"
        }
      ],
      "stateMutability": "view",
      "type": "function",
      "constant": true
    },
    {
      "inputs": [],
      "name": "value",
      "outputs": [
        {
          "internalType": "uint256",
          "name": "",
          "type": "uint256"
        }
      ],
      "stateMutability": "view",
      "type": "function",
      "constant": true
    },
    {
      "inputs": [],
      "name": "vote_token_address",
      "outputs": [
        {
          "internalType": "address",
          "name": "",
          "type": "address"
        }
      ],
      "stateMutability": "view",
      "type": "function",
      "constant": true
    },
    {
      "inputs": [],
      "name": "winner",
      "outputs": [
        {
          "internalType": "string",
          "name": "",
          "type": "string"
        }
      ],
      "stateMutability": "view",
      "type": "function",
      "constant": true
    },
    {
      "inputs": [
        {
          "internalType": "address",
          "name": "_vote_token_address",
          "type": "address"
        }
      ],
      "name": "setVoteTokenAddress",
      "outputs": [],
      "stateMutability": "nonpayable",
      "type": "function"
    },
    {
      "inputs": [
        {
          "internalType": "address",
          "name": "_transport_token_address",
          "type": "address"
        }
      ],
      "name": "setTransportTokenAddress",
      "outputs": [],
      "stateMutability": "nonpayable",
      "type": "function"
    },
    {
      "inputs": [
        {
          "internalType": "string",
          "name": "_politicalPartyName",
          "type": "string"
        }
      ],
      "name": "addPoliticalParty",
      "outputs": [],
      "stateMutability": "nonpayable",
      "type": "function"
    },
    {
      "inputs": [
        {
          "internalType": "string",
          "name": "_candidateName",
          "type": "string"
        },
        {
          "internalType": "uint256",
          "name": "_politicalParty_id",
          "type": "uint256"
        }
      ],
      "name": "addCandidate",
      "outputs": [],
      "stateMutability": "nonpayable",
      "type": "function"
    },
    {
      "inputs": [],
      "name": "registrationVoter",
      "outputs": [],
      "stateMutability": "payable",
      "type": "function",
      "payable": true
    },
    {
      "inputs": [
        {
          "internalType": "uint256",
          "name": "_candidat_id",
          "type": "uint256"
        }
      ],
      "name": "VotingProcess",
      "outputs": [],
      "stateMutability": "nonpayable",
      "type": "function"
    }
  ],
  "bytecode": "0x608060405234801561001057600080fd5b50604051620013a9380380620013a983398181016040528101906100349190610096565b336000806101000a81548173ffffffffffffffffffffffffffffffffffffffff021916908373ffffffffffffffffffffffffffffffffffffffff16021790555080600181905550506100e0565b600081519050610090816100c9565b92915050565b6000602082840312156100a857600080fd5b60006100b684828501610081565b91505092915050565b6000819050919050565b6100d2816100bf565b81146100dd57600080fd5b50565b6112b980620000f06000396000f3fe6080604052600436106100e85760003560e01c80635944e5bb1161008a578063e23cec7b11610059578063e23cec7b146102e6578063fae9c4841461030f578063fdedaa8a14610338578063fee4d17414610376576100e8565b80635944e5bb1461023a578063a37f01c714610265578063ca69c50814610290578063dfbf53ae146102bb576100e8565b80631902abae116100c65780631902abae1461017c578063283ed268146101a5578063290e9212146101d05780633fa4f2451461020f576100e8565b8063026936e9146100ed57806303275ad01461012a5780630f350d3414610153575b600080fd5b3480156100f957600080fd5b50610114600480360381019061010f9190610d99565b610380565b6040516101219190610ef2565b60405180910390f35b34801561013657600080fd5b50610151600480360381019061014c9190610cb2565b610426565b005b34801561015f57600080fd5b5061017a60048036038101906101759190610cb2565b6104c2565b005b34801561018857600080fd5b506101a3600480360381019061019e9190610d99565b61055e565b005b3480156101b157600080fd5b506101ba610736565b6040516101c79190610f72565b60405180910390f35b3480156101dc57600080fd5b506101f760048036038101906101f29190610d99565b61073c565b60405161020693929190610f14565b60405180910390f35b34801561021b57600080fd5b506102246107ee565b6040516102319190610f72565b60405180910390f35b34801561024657600080fd5b5061024f6107f4565b60405161025c9190610e77565b60405180910390f35b34801561027157600080fd5b5061027a61081a565b6040516102879190610e77565b60405180910390f35b34801561029c57600080fd5b506102a5610840565b6040516102b29190610f72565b60405180910390f35b3480156102c757600080fd5b506102d0610846565b6040516102dd9190610ef2565b60405180910390f35b3480156102f257600080fd5b5061030d60048036038101906103089190610d45565b6108d4565b005b34801561031b57600080fd5b5061033660048036038101906103319190610d04565b610992565b005b34801561034457600080fd5b5061035f600480360381019061035a9190610cb2565b610a34565b60405161036d929190610f8d565b60405180910390f35b61037e610a65565b005b60076020528060005260406000206000915090508060000180546103a390611125565b80601f01602080910402602001604051908101604052809291908181526020018280546103cf90611125565b801561041c5780601f106103f15761010080835404028352916020019161041c565b820191906000526020600020905b8154815290600101906020018083116103ff57829003601f168201915b5050505050905081565b60008054906101000a900473ffffffffffffffffffffffffffffffffffffffff1673ffffffffffffffffffffffffffffffffffffffff163373ffffffffffffffffffffffffffffffffffffffff161461047e57600080fd5b80600360006101000a81548173ffffffffffffffffffffffffffffffffffffffff021916908373ffffffffffffffffffffffffffffffffffffffff16021790555050565b60008054906101000a900473ffffffffffffffffffffffffffffffffffffffff1673ffffffffffffffffffffffffffffffffffffffff163373ffffffffffffffffffffffffffffffffffffffff161461051a57600080fd5b80600260006101000a81548173ffffffffffffffffffffffffffffffffffffffff021916908373ffffffffffffffffffffffffffffffffffffffff16021790555050565b6000600260009054906101000a900473ffffffffffffffffffffffffffffffffffffffff1690508073ffffffffffffffffffffffffffffffffffffffff166323b872dd3330600a6040518463ffffffff1660e01b81526004016105c393929190610e92565b602060405180830381600087803b1580156105dd57600080fd5b505af11580156105f1573d6000803e3d6000fd5b505050506040513d601f19601f820116820180604052508101906106159190610cdb565b506000600360009054906101000a900473ffffffffffffffffffffffffffffffffffffffff1690508073ffffffffffffffffffffffffffffffffffffffff1663a9059cbb33600a6040518363ffffffff1660e01b8152600401610679929190610ec9565b602060405180830381600087803b15801561069357600080fd5b505af11580156106a7573d6000803e3d6000fd5b505050506040513d601f19601f820116820180604052508101906106cb9190610cdb565b5060016008600085815260200190815260200160002060020160008282546106f39190611033565b925050819055507f054972f8c9e8064d238d45368703d3e447d0cf7c289c4818b7fe21e798acc7fb336040516107299190610e77565b60405180910390a1505050565b60045481565b600860205280600052604060002060009150905080600001805461075f90611125565b80601f016020809104026020016040519081016040528092919081815260200182805461078b90611125565b80156107d85780601f106107ad576101008083540402835291602001916107d8565b820191906000526020600020905b8154815290600101906020018083116107bb57829003601f168201915b5050505050908060010154908060020154905083565b60015481565b600360009054906101000a900473ffffffffffffffffffffffffffffffffffffffff1681565b600260009054906101000a900473ffffffffffffffffffffffffffffffffffffffff1681565b60055481565b6006805461085390611125565b80601f016020809104026020016040519081016040528092919081815260200182805461087f90611125565b80156108cc5780601f106108a1576101008083540402835291602001916108cc565b820191906000526020600020905b8154815290600101906020018083116108af57829003601f168201915b505050505081565b60008054906101000a900473ffffffffffffffffffffffffffffffffffffffff1673ffffffffffffffffffffffffffffffffffffffff163373ffffffffffffffffffffffffffffffffffffffff161461092c57600080fd5b6005600081548092919061093f90611157565b9190505550816008600060055481526020019081526020016000206000019080519060200190610970929190610b68565b5080600860006005548152602001908152602001600020600101819055505050565b60008054906101000a900473ffffffffffffffffffffffffffffffffffffffff1673ffffffffffffffffffffffffffffffffffffffff163373ffffffffffffffffffffffffffffffffffffffff16146109ea57600080fd5b6001600460008282546109fd9190611033565b92505081905550806007600060045481526020019081526020016000206000019080519060200190610a30929190610b68565b5050565b60096020528060005260406000206000915090508060000154908060010160009054906101000a900460ff16905082565b67016345785d8a00003414610aaf576040517f08c379a0000000000000000000000000000000000000000000000000000000008152600401610aa690610f52565b60405180910390fd5b6000600260009054906101000a900473ffffffffffffffffffffffffffffffffffffffff1690508073ffffffffffffffffffffffffffffffffffffffff1663a9059cbb33600a6040518363ffffffff1660e01b8152600401610b12929190610ec9565b602060405180830381600087803b158015610b2c57600080fd5b505af1158015610b40573d6000803e3d6000fd5b505050506040513d601f19601f82011682018060405250810190610b649190610cdb565b5050565b828054610b7490611125565b90600052602060002090601f016020900481019282610b965760008555610bdd565b82601f10610baf57805160ff1916838001178555610bdd565b82800160010185558215610bdd579182015b82811115610bdc578251825591602001919060010190610bc1565b5b509050610bea9190610bee565b5090565b5b80821115610c07576000816000905550600101610bef565b5090565b6000610c1e610c1984610fe7565b610fb6565b905082815260208101848484011115610c3657600080fd5b610c418482856110e3565b509392505050565b600081359050610c588161123e565b92915050565b600081519050610c6d81611255565b92915050565b600082601f830112610c8457600080fd5b8135610c94848260208601610c0b565b91505092915050565b600081359050610cac8161126c565b92915050565b600060208284031215610cc457600080fd5b6000610cd284828501610c49565b91505092915050565b600060208284031215610ced57600080fd5b6000610cfb84828501610c5e565b91505092915050565b600060208284031215610d1657600080fd5b600082013567ffffffffffffffff811115610d3057600080fd5b610d3c84828501610c73565b91505092915050565b60008060408385031215610d5857600080fd5b600083013567ffffffffffffffff811115610d7257600080fd5b610d7e85828601610c73565b9250506020610d8f85828601610c9d565b9150509250929050565b600060208284031215610dab57600080fd5b6000610db984828501610c9d565b91505092915050565b610dcb81611089565b82525050565b610dda8161109b565b82525050565b610de9816110d1565b82525050565b6000610dfa82611017565b610e048185611022565b9350610e148185602086016110f2565b610e1d8161122d565b840191505092915050565b6000610e35601883611022565b91507f6e6f7420636f7272656374206568746572732076616c756500000000000000006000830152602082019050919050565b610e71816110c7565b82525050565b6000602082019050610e8c6000830184610dc2565b92915050565b6000606082019050610ea76000830186610dc2565b610eb46020830185610dc2565b610ec16040830184610de0565b949350505050565b6000604082019050610ede6000830185610dc2565b610eeb6020830184610de0565b9392505050565b60006020820190508181036000830152610f0c8184610def565b905092915050565b60006060820190508181036000830152610f2e8186610def565b9050610f3d6020830185610e68565b610f4a6040830184610e68565b949350505050565b60006020820190508181036000830152610f6b81610e28565b9050919050565b6000602082019050610f876000830184610e68565b92915050565b6000604082019050610fa26000830185610e68565b610faf6020830184610dd1565b9392505050565b6000604051905081810181811067ffffffffffffffff82111715610fdd57610fdc6111fe565b5b8060405250919050565b600067ffffffffffffffff821115611002576110016111fe565b5b601f19601f8301169050602081019050919050565b600081519050919050565b600082825260208201905092915050565b600061103e826110c7565b9150611049836110c7565b9250827fffffffffffffffffffffffffffffffffffffffffffffffffffffffffffffffff0382111561107e5761107d6111a0565b5b828201905092915050565b6000611094826110a7565b9050919050565b60008115159050919050565b600073ffffffffffffffffffffffffffffffffffffffff82169050919050565b6000819050919050565b60006110dc826110c7565b9050919050565b82818337600083830152505050565b60005b838110156111105780820151818401526020810190506110f5565b8381111561111f576000848401525b50505050565b6000600282049050600182168061113d57607f821691505b60208210811415611151576111506111cf565b5b50919050565b6000611162826110c7565b91507fffffffffffffffffffffffffffffffffffffffffffffffffffffffffffffffff821415611195576111946111a0565b5b600182019050919050565b7f4e487b7100000000000000000000000000000000000000000000000000000000600052601160045260246000fd5b7f4e487b7100000000000000000000000000000000000000000000000000000000600052602260045260246000fd5b7f4e487b7100000000000000000000000000000000000000000000000000000000600052604160045260246000fd5b6000601f19601f8301169050919050565b61124781611089565b811461125257600080fd5b50565b61125e8161109b565b811461126957600080fd5b50565b611275816110c7565b811461128057600080fd5b5056fea2646970667358221220edf6abaae26ff54197fac30ed54077317bc7b35aac6b5ad47e8d45838144a87964736f6c63430008000033",
  "immutableReferences": {},
  "source": "// SPDX-License-Identifier: GPL-3.0\npragma solidity >=0.5.0 <0.9.0;\n\nimport \"@openzeppelin/contracts/token/ERC20/IERC20.sol\";\nimport \"@openzeppelin/contracts/token/ERC721/IERC721.sol\";\ncontract Voting {\n\n  /*list of PoliticalParties and candidates\n  1.   =>   \n  2. =>   \n  3.  =>   \n  VM\n  storage\n  memory\n  stack\n  */\n  event TransferTokenGetMoney(address _sender);\n\n  address owner;\n  uint public value;\n  address public vote_token_address;\n  address public transport_token_address;\n\n  constructor (uint _value) {\n    owner = msg.sender;\n    value = _value;\n }\n\n  // Counters\n  uint public politicalParty_id;\n  uint public candidate_id;\n  string public winner;\n\n  // Mappinngs\n  mapping (uint => politicalParty) public PoliticalParties;\n  mapping (uint => candidate) public Candidates;\n  mapping (address => voter) public Voters;\n\n  // Structure of politicalParty\n\n  struct politicalParty {\n    string politicalPartyName;\n  }\n\n  // Structure of candidate\n  struct candidate {\n    string candidateName;\n    uint politicalParty_id;\n    uint amount;\n  }\n\n  // Structure of Voters\n  struct voter {\n      uint electedid;\n      bool vote;\n  }\n\n  modifier onlyOwner {require(msg.sender == owner);_;}\n\n  function setVoteTokenAddress (address _vote_token_address) onlyOwner public {\n    vote_token_address = _vote_token_address;\n  }\n\n  function setTransportTokenAddress(address _transport_token_address)  onlyOwner public {\n    transport_token_address = _transport_token_address;\n  }\n\n  function addPoliticalParty (string memory _politicalPartyName) onlyOwner public {\n    politicalParty_id += 1;\n    PoliticalParties[politicalParty_id].politicalPartyName = _politicalPartyName;\n  }\n\n  function addCandidate (string memory _candidateName, uint _politicalParty_id) onlyOwner public {\n    candidate_id++;\n    Candidates[candidate_id].candidateName=_candidateName;\n    Candidates[candidate_id].politicalParty_id= _politicalParty_id;\n  }\n\n  function registrationVoter() public payable {\n    require(msg.value == 0.1 ether,\"not correct ehters value\");\n    IERC20 _token = IERC20(vote_token_address);\n    _token.transfer(msg.sender, 10);\n  }\n\n  function VotingProcess(uint _candidat_id) public {\n    IERC20 _vote_token = IERC20(vote_token_address);\n    _vote_token.transferFrom(msg.sender, address(this), 10);\n    IERC20 _transport_token = IERC20(transport_token_address);\n    _transport_token.transfer(msg.sender, 10);\n    Candidates[_candidat_id].amount += 1;\n    emit TransferTokenGetMoney(msg.sender);\n  }\n\n\n  // function createNFTVotingToken(string memory _id_code) public {\n\n  // }\n\n  /*\n  1.    (Transport tokens, TR-TRN)\n     - in folder migration\n     - total supply, transfer\n  2.     10    . \n     -      ( )\n  3.     \n     -      ..\n  4.           \n  5.           \n\n  */\n\n}\n",
  "sourcePath": "/Users/pro/Development/blockchain/course_solidity/contracts/Voting.sol",
  "compiler": {
    "name": "solc",
    "version": "0.8.0+commit.c7dfd78e.Emscripten.clang"
  },
  "schemaVersion": "3.3.3",
  "updatedAt": "2021-05-15T08:02:12.705Z",
  "networkType": "ethereum",
  "devdoc": {
    "kind": "dev",
    "methods": {},
    "version": 1
  },
  "userdoc": {
    "kind": "user",
    "methods": {},
    "version": 1
  }
}